:020000020000FC
:10000000F89405D017D011D007D0789437C008EDF8
:1000100010E00CBF16BF089510E001E01AB909B94D
:1000200008E10DB90EE00CB908950D9A399A299896
:10003000159A0895E0E4F0E400E010E011930395D0
:100040000032E1F708951EB115FFFDCF08B90895FC
:100050001EB117FFFDCF08B108950191003011F0D6
:10006000F2DFFBCF08950EB107FF089508B1FBCF73
:1000700000E01EB117FF089501E00895F9DF00FDCB
:1000800005D000E010A101131CD0F8CFE1DF083447
:1000900039F0023451F00F3469F0003571F00895F1
:1000A0001598E2EDF0E4D9DF0895159AE6EDF0E455
:1000B000D4DF089501E000A9089500E000A9159A91
:1000C000089512B104B1009501FB15F912B9089514
:0E00D000FFCF48690A004279650A0000F9CFA7
:00000001FF
