
AVRASM ver. 2.2.7  C:\Users\miner\Documents\Atmel Studio\7.0\ATTiny104_AssemblerTest\ATTiny104_AssemblerTest\main.asm Sun Nov 12 14:08:46 2017

[builtin](2): Including file 'C:/Program Files (x86)\Atmel\Studio\7.0\Packs\atmel\ATtiny_DFP\1.3.147\avrasm\inc\tn104def.inc'
[builtin](2): Including file 'C:/Program Files (x86)\Atmel\Studio\7.0\Packs\atmel\ATtiny_DFP\1.3.147\avrasm\inc\tn104def.inc'
                                 
                                 ;
                                 
                                 
                                 ;*************************************************************************
                                 ;* A P P L I C A T I O N   N O T E   F O R   T H E   A V R   F A M I L Y
                                 ;*
                                 ;* Number            : AVR000
                                 ;* File Name         : tn104def.inc
                                 ;* Title             : Register/Bit Definitions for the ATtiny104
                                 ;* Created           : 2017-10-02 18:57
                                 ;* Version           : 1.00
                                 ;* Support e-mail    : avr@atmel.com
                                 ;* Target MCU        : ATtiny104
                                 ;*
                                 ;* DESCRIPTION
                                 ;* When including this file in the assembly program file, all I/O register
                                 ;* names and I/O register bit names appearing in the data book can be used.
                                 ;* In addition, the six registers forming the three data pointers X, Y and
                                 ;* Z have been assigned names XL - ZH. Highest RAM address for Internal
                                 ;* SRAM is also defined
                                 ;*
                                 ;*************************************************************************
                                 
                                 #ifndef _TN104DEF_INC_
                                 #define _TN104DEF_INC_
                                 
                                 
                                 #pragma partinc 0
                                 
                                 ; ***** SPECIFY DEVICE ***************************************************
                                 .device	ATtiny104
                                 #pragma AVRPART ADMIN PART_NAME ATtiny104
                                 .equ	SIGNATURE_000	= 0x1E
                                 .equ	SIGNATURE_001	= 0x90
                                 .equ	SIGNATURE_002	= 0x0B
                                 
                                 #pragma AVRPART CORE CORE_VERSION AVR8L_0
                                 
                                 
                                 ; ***** I/O REGISTER DEFINITIONS *****************************************
                                 ; NOTE:
                                 ; Definitions marked "MEMORY MAPPED" are extended I/O ports
                                 ; and cannot be used with IN/OUT instructions
                                 .equ	SREG	= 0x3F ; MEMORY MAPPED
                                 .equ	SPH	= 0x3E ; MEMORY MAPPED
                                 .equ	SPL	= 0x3D ; MEMORY MAPPED
                                 .equ	CCP	= 0x3C ; MEMORY MAPPED
                                 .equ	RSTFLR	= 0x3B ; MEMORY MAPPED
                                 .equ	SMCR	= 0x3A ; MEMORY MAPPED
                                 .equ	OSCCAL	= 0x39 ; MEMORY MAPPED
                                 .equ	CLKMSR	= 0x37 ; MEMORY MAPPED
                                 .equ	CLKPSR	= 0x36 ; MEMORY MAPPED
                                 .equ	PRR	= 0x35 ; MEMORY MAPPED
                                 .equ	VLMCSR	= 0x34 ; MEMORY MAPPED
                                 .equ	NVMCMD	= 0x33 ; MEMORY MAPPED
                                 .equ	NVMCSR	= 0x32 ; MEMORY MAPPED
                                 .equ	WDTCSR	= 0x31 ; MEMORY MAPPED
                                 .equ	GTCCR	= 0x2F ; MEMORY MAPPED
                                 .equ	TCCR0A	= 0x2E ; MEMORY MAPPED
                                 .equ	TCCR0B	= 0x2D ; MEMORY MAPPED
                                 .equ	TCCR0C	= 0x2C ; MEMORY MAPPED
                                 .equ	TIMSK0	= 0x2B ; MEMORY MAPPED
                                 .equ	TIFR0	= 0x2A ; MEMORY MAPPED
                                 .equ	TCNT0H	= 0x29 ; MEMORY MAPPED
                                 .equ	TCNT0L	= 0x28 ; MEMORY MAPPED
                                 .equ	OCR0AH	= 0x27 ; MEMORY MAPPED
                                 .equ	OCR0AL	= 0x26 ; MEMORY MAPPED
                                 .equ	OCR0BH	= 0x25 ; MEMORY MAPPED
                                 .equ	OCR0BL	= 0x24 ; MEMORY MAPPED
                                 .equ	ICR0H	= 0x23 ; MEMORY MAPPED
                                 .equ	ICR0L	= 0x22 ; MEMORY MAPPED
                                 .equ	ACSRA	= 0x1F ; MEMORY MAPPED
                                 .equ	ACSRB	= 0x1E ; MEMORY MAPPED
                                 .equ	ADCSRA	= 0x1D ; MEMORY MAPPED
                                 .equ	ADCSRB	= 0x1C ; MEMORY MAPPED
                                 .equ	ADMUX	= 0x1B ; MEMORY MAPPED
                                 .equ	ADCH	= 0x1A ; MEMORY MAPPED
                                 .equ	ADCL	= 0x19 ; MEMORY MAPPED
                                 .equ	DIDR0	= 0x17 ; MEMORY MAPPED
                                 .equ	PORTCR	= 0x16 ; MEMORY MAPPED
                                 .equ	EICRA	= 0x15 ; MEMORY MAPPED
                                 .equ	EIFR	= 0x14 ; MEMORY MAPPED
                                 .equ	EIMSK	= 0x13 ; MEMORY MAPPED
                                 .equ	PCICR	= 0x12 ; MEMORY MAPPED
                                 .equ	PCIFR	= 0x11 ; MEMORY MAPPED
                                 .equ	PCMSK1	= 0x10 ; MEMORY MAPPED
                                 .equ	PCMSK0	= 0x0F ; MEMORY MAPPED
                                 .equ	UCSRA	= 0x0E ; MEMORY MAPPED
                                 .equ	UCSRB	= 0x0D ; MEMORY MAPPED
                                 .equ	UCSRC	= 0x0C ; MEMORY MAPPED
                                 .equ	UCSRD	= 0x0B ; MEMORY MAPPED
                                 .equ	UBRRH	= 0x0A ; MEMORY MAPPED
                                 .equ	UBRRL	= 0x09 ; MEMORY MAPPED
                                 .equ	UDR	= 0x08 ; MEMORY MAPPED
                                 .equ	PUEB	= 0x07 ; MEMORY MAPPED
                                 .equ	PORTB	= 0x06 ; MEMORY MAPPED
                                 .equ	DDRB	= 0x05 ; MEMORY MAPPED
                                 .equ	PINB	= 0x04 ; MEMORY MAPPED
                                 .equ	PUEA	= 0x03 ; MEMORY MAPPED
                                 .equ	PORTA	= 0x02 ; MEMORY MAPPED
                                 .equ	DDRA	= 0x01 ; MEMORY MAPPED
                                 .equ	PINA	= 0x00 ; MEMORY MAPPED
                                 
                                 
                                 ; ***** BIT DEFINITIONS **************************************************
                                 
                                 ; ***** ADC *****************
                                 ; ADMUX - The ADC multiplexer Selection Register
                                 .equ	MUX0	= 0 ; Analog Channel Selection Bits
                                 .equ	MUX1	= 1 ; Analog Channel Selection Bits
                                 .equ	MUX2	= 2 ; Analog Channel Selection Bits
                                 .equ	REFS0	= 6 ; Analog Reference voltage Selection Bits
                                 .equ	REFS1	= 7 ; Analog Reference voltage Selection Bits
                                 
                                 ; ADCL - ADC Data Register Low
                                 .equ	ADCL0	= 0 ; ADC Data Register Low Bit 0
                                 .equ	ADCL1	= 1 ; ADC Data Register Low Bit 1
                                 .equ	ADCL2	= 2 ; ADC Data Register Low Bit 2
                                 .equ	ADCL3	= 3 ; ADC Data Register Low Bit 3
                                 .equ	ADCL4	= 4 ; ADC Data Register Low Bit 4
                                 .equ	ADCL5	= 5 ; ADC Data Register Low Bit 5
                                 .equ	ADCL6	= 6 ; ADC Data Register Low Bit 6
                                 .equ	ADCL7	= 7 ; ADC Data Register Low Bit 7
                                 
                                 ; ADCH - ADC Data Register High
                                 .equ	ADCH0	= 0 ; ADC Data Register High Bit 0
                                 .equ	ADCH1	= 1 ; ADC Data Register High Bit 1
                                 .equ	ADCH2	= 2 ; ADC Data Register High Bit 2
                                 .equ	ADCH3	= 3 ; ADC Data Register High Bit 3
                                 .equ	ADCH4	= 4 ; ADC Data Register High Bit 4
                                 .equ	ADCH5	= 5 ; ADC Data Register High Bit 5
                                 .equ	ADCH6	= 6 ; ADC Data Register High Bit 6
                                 .equ	ADCH7	= 7 ; ADC Data Register High Bit 7
                                 
                                 ; ADCSRA - The ADC Control and Status register A
                                 .equ	ADPS0	= 0 ; ADC  Prescaler Select Bits
                                 .equ	ADPS1	= 1 ; ADC  Prescaler Select Bits
                                 .equ	ADPS2	= 2 ; ADC  Prescaler Select Bits
                                 .equ	ADIE	= 3 ; ADC Interrupt Enable
                                 .equ	ADIF	= 4 ; ADC Interrupt Flag
                                 .equ	ADATE	= 5 ; ADC  Auto Trigger Enable
                                 .equ	ADSC	= 6 ; ADC Start Conversion
                                 .equ	ADEN	= 7 ; ADC Enable
                                 
                                 ; ADCSRB - The ADC Control and Status register B
                                 .equ	ADTS0	= 0 ; ADC Auto Trigger Source bits
                                 .equ	ADTS1	= 1 ; ADC Auto Trigger Source bits
                                 .equ	ADTS2	= 2 ; ADC Auto Trigger Source bits
                                 .equ	ADLAR	= 7 ; Left Adjustment for ADC Result Readout
                                 
                                 ; DIDR0 - Digital Input Disable Register
                                 .equ	ADC0D	= 0 ; ADC0 Digital Input Disable
                                 .equ	ADC1D	= 1 ; ADC1 Digital Input Disable
                                 .equ	ADC2D	= 2 ; ADC2 Digital Input Disable
                                 .equ	ADC3D	= 3 ; ADC3 Digital Input Disable
                                 .equ	ADC4D	= 4 ; ADC4 Digital Input Disable
                                 .equ	ADC5D	= 5 ; ADC5 Digital Input Disable
                                 .equ	ADC6D	= 6 ; ADC6 Digital Input Disable
                                 .equ	ADC7D	= 7 ; ADC7 Digital Input Disable
                                 
                                 
                                 ; ***** AC *****************
                                 ; ACSRA - Analog Comparator Control And Status Register A
                                 .equ	ACIS0	= 0 ; Analog Comparator Interrupt Mode Select bits
                                 .equ	ACIS1	= 1 ; Analog Comparator Interrupt Mode Select bits
                                 .equ	ACIC	= 2 ; Analog Comparator Input Capture  Enable
                                 .equ	ACIE	= 3 ; Analog Comparator Interrupt Enable
                                 .equ	ACI	= 4 ; Analog Comparator Interrupt Flag
                                 .equ	ACO	= 5 ; Analog Compare Output
                                 .equ	ACBG	= 6 ; Analog Comparator Bandgap enable
                                 .equ	ACD	= 7 ; Analog Comparator Disable
                                 
                                 ; ACSRB - Analog Comparator Control And Status Register B
                                 .equ	ACPMUX	= 0 ; Analog Comparator positive input selection bit
                                 .equ	ACOE	= 1 ; Analog Comparator Output Enable
                                 
                                 ; DIDR0 - 
                                 .equ	AIN0D	= 0 ; AIN0 Digital Input Disable
                                 .equ	AIN1D	= 1 ; AIN1 Digital Input Disable
                                 
                                 
                                 ; ***** CPU *****************
                                 ; CCP - Configuration Change Protection
                                 .equ	CCP0	= 0 ; CCP signature
                                 .equ	CCP1	= 1 ; CCP signature
                                 .equ	CCP2	= 2 ; CCP signature
                                 .equ	CCP3	= 3 ; CCP signature
                                 .equ	CCP4	= 4 ; CCP signature
                                 .equ	CCP5	= 5 ; CCP signature
                                 .equ	CCP6	= 6 ; CCP signature
                                 .equ	CCP7	= 7 ; CCP signature
                                 
                                 ; SP - Stack Pointer 
                                 .equ	SPH0	= 0 ; Stack Pointer  High Bit 8
                                 .equ	SPH1	= 1 ; Stack Pointer  High Bit 9
                                 .equ	SPH2	= 2 ; Stack Pointer  High Bit 10
                                 .equ	SPH3	= 3 ; Stack Pointer  High Bit 11
                                 .equ	SPH4	= 4 ; Stack Pointer  High Bit 12
                                 .equ	SPH5	= 5 ; Stack Pointer  High Bit 13
                                 .equ	SPH6	= 6 ; Stack Pointer  High Bit 14
                                 .equ	SPH7	= 7 ; Stack Pointer  High Bit 15
                                 
                                 .equ	SPL0	= 0 ; Stack Pointer  Low Bit 0
                                 .equ	SPL1	= 1 ; Stack Pointer  Low Bit 1
                                 .equ	SPL2	= 2 ; Stack Pointer  Low Bit 2
                                 .equ	SPL3	= 3 ; Stack Pointer  Low Bit 3
                                 .equ	SPL4	= 4 ; Stack Pointer  Low Bit 4
                                 .equ	SPL5	= 5 ; Stack Pointer  Low Bit 5
                                 .equ	SPL6	= 6 ; Stack Pointer  Low Bit 6
                                 .equ	SPL7	= 7 ; Stack Pointer  Low Bit 7
                                 
                                 ; SREG - Status Register
                                 .equ	SREG_C	= 0 ; Carry Flag
                                 .equ	SREG_Z	= 1 ; Zero Flag
                                 .equ	SREG_N	= 2 ; Negative Flag
                                 .equ	SREG_V	= 3 ; Two's Complement Overflow Flag
                                 .equ	SREG_S	= 4 ; Sign Bit
                                 .equ	SREG_H	= 5 ; Half Carry Flag
                                 .equ	SREG_T	= 6 ; Bit Copy Storage
                                 .equ	SREG_I	= 7 ; Global Interrupt Enable
                                 
                                 ; CLKMSR - Clock Main Settings Register
                                 .equ	CLKMS0	= 0 ; Clock Main Select Bits
                                 .equ	CLKMS1	= 1 ; Clock Main Select Bits
                                 
                                 ; CLKPSR - Clock Prescale Register
                                 .equ	CLKPS0	= 0 ; Clock Prescaler Select Bits
                                 .equ	CLKPS1	= 1 ; Clock Prescaler Select Bits
                                 .equ	CLKPS2	= 2 ; Clock Prescaler Select Bits
                                 .equ	CLKPS3	= 3 ; Clock Prescaler Select Bits
                                 
                                 ; OSCCAL - Oscillator Calibration Value
                                 .equ	OSCCAL0	= 0 ; Oscillator Calibration Value Bit 0
                                 .equ	OSCCAL1	= 1 ; Oscillator Calibration Value Bit 1
                                 .equ	OSCCAL2	= 2 ; Oscillator Calibration Value Bit 2
                                 .equ	OSCCAL3	= 3 ; Oscillator Calibration Value Bit 3
                                 .equ	OSCCAL4	= 4 ; Oscillator Calibration Value Bit 4
                                 .equ	OSCCAL5	= 5 ; Oscillator Calibration Value Bit 5
                                 .equ	OSCCAL6	= 6 ; Oscillator Calibration Value Bit 6
                                 .equ	OSCCAL7	= 7 ; Oscillator Calibration Value Bit 7
                                 
                                 ; SMCR - Sleep Mode Control Register
                                 .equ	SE	= 0 ; Sleep Enable
                                 .equ	SM0	= 1 ; Sleep Mode Select Bits
                                 .equ	SM1	= 2 ; Sleep Mode Select Bits
                                 .equ	SM2	= 3 ; Sleep Mode Select Bits
                                 
                                 ; PRR - Power Reduction Register
                                 .equ	PRTIM0	= 0 ; Power Reduction Timer/Counter0
                                 .equ	PRADC	= 1 ; Power Reduction ADC
                                 .equ	PRUSART	= 2 ; Power Reduction USART
                                 
                                 ; VLMCSR - Vcc Level Monitoring Control and Status Register
                                 .equ	VLM0	= 0 ; Trigger Level of Voltage Level Monitor bits
                                 .equ	VLM1	= 1 ; Trigger Level of Voltage Level Monitor bits
                                 .equ	VLM2	= 2 ; Trigger Level of Voltage Level Monitor bits
                                 .equ	VLMIE	= 6 ; VLM Interrupt Enable
                                 .equ	VLMF	= 7 ; VLM Flag
                                 
                                 ; RSTFLR - Reset Flag Register
                                 .equ	PORF	= 0 ; Power-on Reset Flag
                                 .equ	EXTRF	= 1 ; External Reset Flag
                                 .equ	WDRF	= 3 ; Watchdog Reset Flag
                                 
                                 ; NVMCSR - Non-Volatile Memory Control and Status Register
                                 .equ	NVMBSY	= 7 ; Non-Volatile Memory Busy
                                 
                                 ; NVMCMD - Non-Volatile Memory Command
                                 .equ	NVMCMD0	= 0 ; Non-Volatile Memory Command Bit 0
                                 .equ	NVMCMD1	= 1 ; Non-Volatile Memory Command Bit 1
                                 .equ	NVMCMD2	= 2 ; Non-Volatile Memory Command Bit 2
                                 .equ	NVMCMD3	= 3 ; Non-Volatile Memory Command Bit 3
                                 .equ	NVMCMD4	= 4 ; Non-Volatile Memory Command Bit 4
                                 .equ	NVMCMD5	= 5 ; Non-Volatile Memory Command Bit 5
                                 
                                 
                                 ; ***** PORTA *****************
                                 ; PORTCR - Port Control Register
                                 .equ	BBMA	= 0 ; Break-Before-Make Mode Enable for PORTA
                                 
                                 ; PUEA - Pull-up Enable Control Register for PORTA
                                 .equ	PUEA0	= 0 ; Pull-up Enable Control Register for PORTA Bit 0
                                 .equ	PUEA1	= 1 ; Pull-up Enable Control Register for PORTA Bit 1
                                 .equ	PUEA2	= 2 ; Pull-up Enable Control Register for PORTA Bit 2
                                 .equ	PUEA3	= 3 ; Pull-up Enable Control Register for PORTA Bit 3
                                 .equ	PUEA4	= 4 ; Pull-up Enable Control Register for PORTA Bit 4
                                 .equ	PUEA5	= 5 ; Pull-up Enable Control Register for PORTA Bit 5
                                 .equ	PUEA6	= 6 ; Pull-up Enable Control Register for PORTA Bit 6
                                 .equ	PUEA7	= 7 ; Pull-up Enable Control Register for PORTA Bit 7
                                 
                                 ; DDRA - Data Direction Register, Port A
                                 .equ	DDRA0	= 0 ; Data Direction Register, Port A Bit 0
                                 .equ	DDRA1	= 1 ; Data Direction Register, Port A Bit 1
                                 .equ	DDRA2	= 2 ; Data Direction Register, Port A Bit 2
                                 .equ	DDRA3	= 3 ; Data Direction Register, Port A Bit 3
                                 .equ	DDRA4	= 4 ; Data Direction Register, Port A Bit 4
                                 .equ	DDRA5	= 5 ; Data Direction Register, Port A Bit 5
                                 .equ	DDRA6	= 6 ; Data Direction Register, Port A Bit 6
                                 .equ	DDRA7	= 7 ; Data Direction Register, Port A Bit 7
                                 
                                 ; PINA - Input Pins, Port A
                                 .equ	PINA0	= 0 ; Input Pins, Port A Bit 0
                                 .equ	PINA1	= 1 ; Input Pins, Port A Bit 1
                                 .equ	PINA2	= 2 ; Input Pins, Port A Bit 2
                                 .equ	PINA3	= 3 ; Input Pins, Port A Bit 3
                                 .equ	PINA4	= 4 ; Input Pins, Port A Bit 4
                                 .equ	PINA5	= 5 ; Input Pins, Port A Bit 5
                                 .equ	PINA6	= 6 ; Input Pins, Port A Bit 6
                                 .equ	PINA7	= 7 ; Input Pins, Port A Bit 7
                                 
                                 ; PORTA - Port A Data register
                                 .equ	PORTA0	= 0 ; Port A Data register Bit 0
                                 .equ	PORTA1	= 1 ; Port A Data register Bit 1
                                 .equ	PORTA2	= 2 ; Port A Data register Bit 2
                                 .equ	PORTA3	= 3 ; Port A Data register Bit 3
                                 .equ	PORTA4	= 4 ; Port A Data register Bit 4
                                 .equ	PORTA5	= 5 ; Port A Data register Bit 5
                                 .equ	PORTA6	= 6 ; Port A Data register Bit 6
                                 .equ	PORTA7	= 7 ; Port A Data register Bit 7
                                 
                                 
                                 ; ***** PORTB *****************
                                 ; PORTCR - Port Control Register
                                 .equ	BBMB	= 1 ; Break-Before-Make Mode Enable for PORTB
                                 
                                 ; PUEB - Pull-up Enable Control Register for PORTB
                                 .equ	PUEB0	= 0 ; Pull-up Enable Control Register for PORTB Bit 0
                                 .equ	PUEB1	= 1 ; Pull-up Enable Control Register for PORTB Bit 1
                                 .equ	PUEB2	= 2 ; Pull-up Enable Control Register for PORTB Bit 2
                                 .equ	PUEB3	= 3 ; Pull-up Enable Control Register for PORTB Bit 3
                                 
                                 ; DDRB - Data Direction Register, Port B
                                 .equ	DDRB0	= 0 ; Data Direction Register, Port B Bit 0
                                 .equ	DDRB1	= 1 ; Data Direction Register, Port B Bit 1
                                 .equ	DDRB2	= 2 ; Data Direction Register, Port B Bit 2
                                 .equ	DDRB3	= 3 ; Data Direction Register, Port B Bit 3
                                 
                                 ; PINB - Input Pins, Port B
                                 .equ	PINB0	= 0 ; Input Pins, Port B Bit 0
                                 .equ	PINB1	= 1 ; Input Pins, Port B Bit 1
                                 .equ	PINB2	= 2 ; Input Pins, Port B Bit 2
                                 .equ	PINB3	= 3 ; Input Pins, Port B Bit 3
                                 
                                 ; PORTB - Port B Data register
                                 .equ	PORTB0	= 0 ; Port B Data register Bit 0
                                 .equ	PORTB1	= 1 ; Port B Data register Bit 1
                                 .equ	PORTB2	= 2 ; Port B Data register Bit 2
                                 .equ	PORTB3	= 3 ; Port B Data register Bit 3
                                 
                                 
                                 ; ***** EXINT *****************
                                 ; EICRA - External Interrupt Control Register A
                                 .equ	ISC00	= 0 ; Interrupt Sense Control 0 Bit 0
                                 .equ	ISC01	= 1 ; Interrupt Sense Control 0 Bit 1
                                 
                                 ; EIMSK - External Interrupt Mask register
                                 .equ	INT0	= 0 ; External Interrupt Request 0 Enable
                                 
                                 ; EIFR - External Interrupt Flag register
                                 .equ	INTF0	= 0 ; External Interrupt Flag 0
                                 
                                 ; PCICR - Pin Change Interrupt Control Register
                                 .equ	PCIE0	= 0 ; Pin Change Interrupt Enable 0
                                 .equ	PCIE1	= 1 ; Pin Change Interrupt Enable 1
                                 
                                 ; PCIFR - Pin Change Interrupt Flag Register
                                 .equ	PCIF0	= 0 ; Pin Change Interrupt Flag 0
                                 .equ	PCIF1	= 1 ; Pin Change Interrupt Flag 1
                                 
                                 ; PCMSK1 - Pin Change Mask Register 1
                                 .equ	PCINT8	= 0 ; Pin Change Enable Mask 1 Bit 0
                                 .equ	PCINT9	= 1 ; Pin Change Enable Mask 1 Bit 1
                                 .equ	PCINT10	= 2 ; Pin Change Enable Mask 1 Bit 2
                                 .equ	PCINT11	= 3 ; Pin Change Enable Mask 1 Bit 3
                                 
                                 ; PCMSK0 - Pin Change Mask Register 0
                                 .equ	PCINT0	= 0 ; Pin Change Enable Mask 0 Bit 0
                                 .equ	PCINT1	= 1 ; Pin Change Enable Mask 0 Bit 1
                                 .equ	PCINT2	= 2 ; Pin Change Enable Mask 0 Bit 2
                                 .equ	PCINT3	= 3 ; Pin Change Enable Mask 0 Bit 3
                                 .equ	PCINT4	= 4 ; Pin Change Enable Mask 0 Bit 4
                                 .equ	PCINT5	= 5 ; Pin Change Enable Mask 0 Bit 5
                                 .equ	PCINT6	= 6 ; Pin Change Enable Mask 0 Bit 6
                                 .equ	PCINT7	= 7 ; Pin Change Enable Mask 0 Bit 7
                                 
                                 
                                 ; ***** TC0 *****************
                                 ; TCCR0A - Timer/Counter 0 Control Register A
                                 .equ	WGM00	= 0 ; Waveform Generation Mode
                                 .equ	WGM01	= 1 ; Waveform Generation Mode
                                 .equ	COM0B0	= 4 ; Compare Output Mode for Channel B bits
                                 .equ	COM0B1	= 5 ; Compare Output Mode for Channel B bits
                                 .equ	COM0A0	= 6 ; Compare Output Mode for Channel A bits
                                 .equ	COM0A1	= 7 ; Compare Output Mode for Channel A bits
                                 
                                 ; TCCR0B - Timer/Counter 0 Control Register B
                                 .equ	CS00	= 0 ; Clock Select
                                 .equ	CS01	= 1 ; Clock Select
                                 .equ	CS02	= 2 ; Clock Select
                                 .equ	WGM02	= 3 ; Waveform Generation Mode
                                 .equ	WGM03	= 4 ; Waveform Generation Mode
                                 .equ	ICES0	= 6 ; Input Capture Edge Select
                                 .equ	ICNC0	= 7 ; Input Capture Noise Canceler
                                 
                                 ; TCCR0C - Timer/Counter 0 Control Register C
                                 .equ	FOC0B	= 6 ; Force Output Compare for Channel B
                                 .equ	FOC0A	= 7 ; Force Output Compare for Channel A
                                 
                                 ; TCNT0 - Timer/Counter0 
                                 .equ	TCNT0H0	= 0 ; Timer/Counter0  High Bit 8
                                 .equ	TCNT0H1	= 1 ; Timer/Counter0  High Bit 9
                                 .equ	TCNT0H2	= 2 ; Timer/Counter0  High Bit 10
                                 .equ	TCNT0H3	= 3 ; Timer/Counter0  High Bit 11
                                 .equ	TCNT0H4	= 4 ; Timer/Counter0  High Bit 12
                                 .equ	TCNT0H5	= 5 ; Timer/Counter0  High Bit 13
                                 .equ	TCNT0H6	= 6 ; Timer/Counter0  High Bit 14
                                 .equ	TCNT0H7	= 7 ; Timer/Counter0  High Bit 15
                                 
                                 .equ	TCNT0L0	= 0 ; Timer/Counter0  Low Bit 0
                                 .equ	TCNT0L1	= 1 ; Timer/Counter0  Low Bit 1
                                 .equ	TCNT0L2	= 2 ; Timer/Counter0  Low Bit 2
                                 .equ	TCNT0L3	= 3 ; Timer/Counter0  Low Bit 3
                                 .equ	TCNT0L4	= 4 ; Timer/Counter0  Low Bit 4
                                 .equ	TCNT0L5	= 5 ; Timer/Counter0  Low Bit 5
                                 .equ	TCNT0L6	= 6 ; Timer/Counter0  Low Bit 6
                                 .equ	TCNT0L7	= 7 ; Timer/Counter0  Low Bit 7
                                 
                                 ; OCR0A - Timer/Counter 0 Output Compare Register A 
                                 .equ	OCR0AH0	= 0 ; Timer/Counter 0 Output Compare Register A  High Bit 8
                                 .equ	OCR0AH1	= 1 ; Timer/Counter 0 Output Compare Register A  High Bit 9
                                 .equ	OCR0AH2	= 2 ; Timer/Counter 0 Output Compare Register A  High Bit 10
                                 .equ	OCR0AH3	= 3 ; Timer/Counter 0 Output Compare Register A  High Bit 11
                                 .equ	OCR0AH4	= 4 ; Timer/Counter 0 Output Compare Register A  High Bit 12
                                 .equ	OCR0AH5	= 5 ; Timer/Counter 0 Output Compare Register A  High Bit 13
                                 .equ	OCR0AH6	= 6 ; Timer/Counter 0 Output Compare Register A  High Bit 14
                                 .equ	OCR0AH7	= 7 ; Timer/Counter 0 Output Compare Register A  High Bit 15
                                 
                                 .equ	OCR0AL0	= 0 ; Timer/Counter 0 Output Compare Register A  Low Bit 0
                                 .equ	OCR0AL1	= 1 ; Timer/Counter 0 Output Compare Register A  Low Bit 1
                                 .equ	OCR0AL2	= 2 ; Timer/Counter 0 Output Compare Register A  Low Bit 2
                                 .equ	OCR0AL3	= 3 ; Timer/Counter 0 Output Compare Register A  Low Bit 3
                                 .equ	OCR0AL4	= 4 ; Timer/Counter 0 Output Compare Register A  Low Bit 4
                                 .equ	OCR0AL5	= 5 ; Timer/Counter 0 Output Compare Register A  Low Bit 5
                                 .equ	OCR0AL6	= 6 ; Timer/Counter 0 Output Compare Register A  Low Bit 6
                                 .equ	OCR0AL7	= 7 ; Timer/Counter 0 Output Compare Register A  Low Bit 7
                                 
                                 ; OCR0B - Timer/Counter0 Output Compare Register B 
                                 .equ	OCR0BH0	= 0 ; Timer/Counter0 Output Compare Register B  High Bit 8
                                 .equ	OCR0BH1	= 1 ; Timer/Counter0 Output Compare Register B  High Bit 9
                                 .equ	OCR0BH2	= 2 ; Timer/Counter0 Output Compare Register B  High Bit 10
                                 .equ	OCR0BH3	= 3 ; Timer/Counter0 Output Compare Register B  High Bit 11
                                 .equ	OCR0BH4	= 4 ; Timer/Counter0 Output Compare Register B  High Bit 12
                                 .equ	OCR0BH5	= 5 ; Timer/Counter0 Output Compare Register B  High Bit 13
                                 .equ	OCR0BH6	= 6 ; Timer/Counter0 Output Compare Register B  High Bit 14
                                 .equ	OCR0BH7	= 7 ; Timer/Counter0 Output Compare Register B  High Bit 15
                                 
                                 .equ	OCR0BL0	= 0 ; Timer/Counter0 Output Compare Register B  Low Bit 0
                                 .equ	OCR0BL1	= 1 ; Timer/Counter0 Output Compare Register B  Low Bit 1
                                 .equ	OCR0BL2	= 2 ; Timer/Counter0 Output Compare Register B  Low Bit 2
                                 .equ	OCR0BL3	= 3 ; Timer/Counter0 Output Compare Register B  Low Bit 3
                                 .equ	OCR0BL4	= 4 ; Timer/Counter0 Output Compare Register B  Low Bit 4
                                 .equ	OCR0BL5	= 5 ; Timer/Counter0 Output Compare Register B  Low Bit 5
                                 .equ	OCR0BL6	= 6 ; Timer/Counter0 Output Compare Register B  Low Bit 6
                                 .equ	OCR0BL7	= 7 ; Timer/Counter0 Output Compare Register B  Low Bit 7
                                 
                                 ; ICR0 - Input Capture Register  Bytes
                                 .equ	ICR0H0	= 0 ; Input Capture Register  Bytes High Bit 8
                                 .equ	ICR0H1	= 1 ; Input Capture Register  Bytes High Bit 9
                                 .equ	ICR0H2	= 2 ; Input Capture Register  Bytes High Bit 10
                                 .equ	ICR0H3	= 3 ; Input Capture Register  Bytes High Bit 11
                                 .equ	ICR0H4	= 4 ; Input Capture Register  Bytes High Bit 12
                                 .equ	ICR0H5	= 5 ; Input Capture Register  Bytes High Bit 13
                                 .equ	ICR0H6	= 6 ; Input Capture Register  Bytes High Bit 14
                                 .equ	ICR0H7	= 7 ; Input Capture Register  Bytes High Bit 15
                                 
                                 .equ	ICR0L0	= 0 ; Input Capture Register  Bytes Low Bit 0
                                 .equ	ICR0L1	= 1 ; Input Capture Register  Bytes Low Bit 1
                                 .equ	ICR0L2	= 2 ; Input Capture Register  Bytes Low Bit 2
                                 .equ	ICR0L3	= 3 ; Input Capture Register  Bytes Low Bit 3
                                 .equ	ICR0L4	= 4 ; Input Capture Register  Bytes Low Bit 4
                                 .equ	ICR0L5	= 5 ; Input Capture Register  Bytes Low Bit 5
                                 .equ	ICR0L6	= 6 ; Input Capture Register  Bytes Low Bit 6
                                 .equ	ICR0L7	= 7 ; Input Capture Register  Bytes Low Bit 7
                                 
                                 ; TIMSK0 - Timer Interrupt Mask Register 0
                                 .equ	TOIE0	= 0 ; Overflow Interrupt Enable
                                 .equ	OCIE0A	= 1 ; Output Compare A Match Interrupt Enable
                                 .equ	OCIE0B	= 2 ; Output Compare B Match Interrupt Enable
                                 .equ	ICIE0	= 5 ; Input Capture Interrupt Enable
                                 
                                 ; TIFR0 - Overflow Interrupt Enable
                                 .equ	TOV0	= 0 ; Timer Overflow Flag
                                 .equ	OCF0A	= 1 ; Timer Output Compare Flag 0A
                                 .equ	OCF0B	= 2 ; Timer Output Compare Flag 0B
                                 .equ	ICF0	= 5 ; Input Capture Flag
                                 
                                 ; GTCCR - General Timer/Counter Control Register
                                 .equ	PSR	= 0 ; Prescaler Reset
                                 .equ	REMAP	= 1 ; Remap Bit for 14 pin part only
                                 .equ	TSM	= 7 ; Timer Synchronization Mode
                                 
                                 
                                 ; ***** WDT *****************
                                 ; WDTCSR - Watchdog Timer Control and Status Register
                                 .equ	WDE	= 3 ; Watch Dog Enable
                                 .equ	WDP0	= 0 ; Watchdog Timer Prescaler Bits
                                 .equ	WDP1	= 1 ; Watchdog Timer Prescaler Bits
                                 .equ	WDP2	= 2 ; Watchdog Timer Prescaler Bits
                                 .equ	WDP3	= 5 ; Watchdog Timer Prescaler Bits
                                 .equ	WDIE	= 6 ; Watchdog Timer Interrupt Enable
                                 .equ	WDIF	= 7 ; Watchdog Timer Interrupt Flag
                                 
                                 
                                 ; ***** FUSE *****************
                                 ; BYTE0 - 
                                 .equ	RSTDISBL	= 0 ; Disable external reset
                                 .equ	WDTON	= 1 ; Watch dog timer always on
                                 .equ	CKOUT	= 2 ; Output external clock
                                 .equ	SELFPROGEN	= 3 ; Self programming enable
                                 
                                 
                                 ; ***** LOCKBIT *****************
                                 ; LOCKBIT - 
                                 .equ	LB1	= 0 ; Memory Lock
                                 .equ	LB2	= 1 ; Memory Lock
                                 
                                 
                                 ; ***** USART *****************
                                 ; UDR - USART I/O Data Register
                                 .equ	UDR0	= 0 ; USART I/O Data Register Bit 0
                                 .equ	UDR1	= 1 ; USART I/O Data Register Bit 1
                                 .equ	UDR2	= 2 ; USART I/O Data Register Bit 2
                                 .equ	UDR3	= 3 ; USART I/O Data Register Bit 3
                                 .equ	UDR4	= 4 ; USART I/O Data Register Bit 4
                                 .equ	UDR5	= 5 ; USART I/O Data Register Bit 5
                                 .equ	UDR6	= 6 ; USART I/O Data Register Bit 6
                                 .equ	UDR7	= 7 ; USART I/O Data Register Bit 7
                                 
                                 ; UCSRA - USART Control and Status Register A
                                 .equ	MPCM	= 0 ; Multi-processor Communication Mode
                                 .equ	U2X	= 1 ; Double the USART transmission speed
                                 .equ	UPE	= 2 ; Parity Error
                                 .equ	DOR	= 3 ; Data overRun
                                 .equ	FE	= 4 ; Framing Error
                                 .equ	UDRE	= 5 ; USART Data Register Empty
                                 .equ	TXC	= 6 ; USART Transmitt Complete
                                 .equ	RXC	= 7 ; USART Receive Complete
                                 
                                 ; UCSRB - USART Control and Status Register B
                                 .equ	TXB8	= 0 ; Transmit Data Bit 8
                                 .equ	RXB8	= 1 ; Receive Data Bit 8
                                 .equ	UCSZ2	= 2 ; Character Size
                                 .equ	TXEN	= 3 ; Transmitter Enable
                                 .equ	RXEN	= 4 ; Receiver Enable
                                 .equ	UDRIE	= 5 ; USART Data register Empty Interrupt Enable
                                 .equ	TXCIE	= 6 ; TX Complete Interrupt Enable
                                 .equ	RXCIE	= 7 ; RX Complete Interrupt Enable
                                 
                                 ; UCSRC - USART Control and Status Register C
                                 .equ	UCPOL	= 0 ; Clock Polarity
                                 .equ	UCSZ0	= 1 ; Character Size
                                 .equ	UCSZ1	= 2 ; Character Size
                                 .equ	USBS	= 3 ; Stop Bit Select
                                 .equ	UPM0	= 4 ; Parity Mode Bits
                                 .equ	UPM1	= 5 ; Parity Mode Bits
                                 .equ	UMSEL0	= 6 ; USART Mode Select
                                 .equ	UMSEL1	= 7 ; USART Mode Select
                                 
                                 ; UCSRD - USART Control and Status Register D
                                 .equ	SFDE	= 5 ; Start frame detection enable
                                 .equ	RXS	= 6 ; USART RX Start Flag
                                 .equ	RXSIE	= 7 ; USART RX Start Interrupt Enable
                                 
                                 ; UBRR - USART Baud Rate Register  Bytes
                                 .equ	UBRRH0	= 0 ; USART Baud Rate Register  Bytes High Bit 8
                                 .equ	UBRRH1	= 1 ; USART Baud Rate Register  Bytes High Bit 9
                                 .equ	UBRRH2	= 2 ; USART Baud Rate Register  Bytes High Bit 10
                                 .equ	UBRRH3	= 3 ; USART Baud Rate Register  Bytes High Bit 11
                                 
                                 .equ	UBRRL0	= 0 ; USART Baud Rate Register  Bytes Low Bit 0
                                 .equ	UBRRL1	= 1 ; USART Baud Rate Register  Bytes Low Bit 1
                                 .equ	UBRRL2	= 2 ; USART Baud Rate Register  Bytes Low Bit 2
                                 .equ	UBRRL3	= 3 ; USART Baud Rate Register  Bytes Low Bit 3
                                 .equ	UBRRL4	= 4 ; USART Baud Rate Register  Bytes Low Bit 4
                                 .equ	UBRRL5	= 5 ; USART Baud Rate Register  Bytes Low Bit 5
                                 .equ	UBRRL6	= 6 ; USART Baud Rate Register  Bytes Low Bit 6
                                 .equ	UBRRL7	= 7 ; USART Baud Rate Register  Bytes Low Bit 7
                                 
                                 ; ***** CPU REGISTER DEFINITIONS *****************************************
                                 .def	XH	= r27
                                 .def	XL	= r26
                                 .def	YH	= r29
                                 .def	YL	= r28
                                 .def	ZH	= r31
                                 .def	ZL	= r30
                                 
                                 ; ***** DATA MEMORY DECLARATIONS *****************************************
                                 .equ	FLASHSTART	= 0x0000 ; Note: Word address
                                 .equ	FLASHEND	= 0x01FF ; Note: Word address
                                 .equ	FLASHPAGESIZE	= 0x0080 ;
                                 
                                 .equ	SRAM_START	= 0x0040
                                 .equ	SRAM_SIZE	= 32
                                 .equ	RAMEND	= 0x005F
                                 
                                 .equ	XRAMEND	= 0x0000
                                 
                                 #pragma AVRPART MEMORY PROG_FLASH 1024
                                 #pragma AVRPART MEMORY INT_SRAM SIZE 32
                                 #pragma AVRPART MEMORY INT_SRAM START_ADDR 0x40
                                 
                                 
                                 ; ***** BOOTLOADER DECLARATIONS ******************************************
                                  ; No bootloader declariations; ***** INTERRUPT VECTORS ************************************************
                                 .equ	INT0addr	 = 0x0001 ; External Interrupt Request 0
                                 .equ	PCINT0addr	 = 0x0002 ; Pin Change Interrupt Request 0
                                 .equ	PCINT1addr	 = 0x0003 ; Pin Change Interrupt Request 1
                                 .equ	TIM0_CAPTaddr	 = 0x0004 ; Timer/Counter0 Input Capture
                                 .equ	TIM0_OVFaddr	 = 0x0005 ; Timer/Counter0 Overflow
                                 .equ	TIM0_COMPAaddr	 = 0x0006 ; Timer/Counter Compare Match A
                                 .equ	TIM0_COMPBaddr	 = 0x0007 ; Timer/Counter Compare Match B
                                 .equ	ANA_COMPaddr	 = 0x0008 ; Analog Comparator
                                 .equ	WDTaddr	 = 0x0009 ; Watchdog Time-out
                                 .equ	VLMaddr	 = 0x000A ; Vcc Voltage Level Monitor
                                 .equ	ADCaddr	 = 0x000B ; ADC Conversion complete
                                 .equ	USART_RXSaddr	 = 0x000C ; USART RX Start
                                 .equ	USART_RXCaddr	 = 0x000D ; USART RX Complete
                                 .equ	USART_DREaddr	 = 0x000E ; USART Data register empty
                                 .equ	USART_TXCaddr	 = 0x000F ; USART Tx Complete
                                 
                                 .equ	INT_VECTORS_SIZE	= 16 ; size in words
                                 
                                 #endif /* _TN104DEF_INC_ */
                                 
                                 ; ***** END OF FILE ******************************************************
                                 
                                 
                                 
                                 
                                 ; ATTiny104_AssemblerTest.asm
                                 ;
                                 ; Created: 11/11/2017 11:00:00 AM
                                 ; Author : Keith Webb
                                 ;
                                 
                                 start:
                                 	; Perform initialization tasks here
000000 94f8                      	cli					; Disable Interrupts
000001 d004                      	rcall setup_clock	; Setup Clock to be 8Mhz
000002 d011                      	rcall setup_gpio	; Setup LED and Button GPIO		
000003 d007                      	rcall setup_usart	; Setup USART to allow logging
000004 9478                      	sei					; Enable Interrupts
                                 	
                                 	; sbi PORTA, 5 ; LED Off
                                 	; cbi PORTA, 5 ; LED On
                                 	
                                 	; pg 67
                                 
000005 c028                          rjmp loop
                                 
                                 setup_clock:
                                 	; Sets up clock to run at full speed
000006 ed08                      	ldi r16, 0xD8			; Write signature for enabling write to protected IO to tmp1
000007 e010                      	ldi r17, CLKPS0			; Write desired clock prescalar to tmp2 (CLKPS0=0, Div by 1)
000008 bf0c                      	out CCP, r16			; Move tmp1 to CCP	
000009 bf16                      	out CLKPSR, r17			; Move tmp2 to CLKPSR
00000a 9508                      	ret
                                 
                                 setup_usart:
                                 	; Sets up USART module for communications
                                 
                                 	; Set baud rate to UBRR (0x0001 = 250,000bps if Clock=8MHz)
00000b e010                      	ldi r17, 0x00
00000c e001                      	ldi r16, 0x01
00000d b91a                      	out UBRRH, r17		
00000e b909                      	out UBRRL, r16
                                 
                                 	; Enable receiver and transmitter
00000f e108                      	ldi r16, (1 << RXEN) | (1 << TXEN)
000010 b90d                      	out UCSRB, r16
                                 
                                 	; Set frame format: 8data, 2stop bit
000011 e00e                      	ldi r16, (1 << USBS) | (3 << UCSZ0)
000012 b90c                      	out UCSRC, r16
                                 
                                 	; PB2=RX, PB3=TX
000013 9508                      	ret
                                 
                                 setup_gpio:
                                 	; Sets up GPIO to desired settings
000014 9a0d                      	sbi DDRA, 5		; Sets PA5 as output	
000015 9a39                      	sbi PUEB, 1		; Enable pull up on PB1	
000016 9829                      	cbi DDRB, 1		; Sets PB1 as input	
000017 9a15                      	sbi PORTA, 5	; Turn LED Off
000018 9508                      	ret
                                 
                                 write_usart:
                                 	; writes data to USART module, value goes in r16
                                 
                                 	; Usage
                                 	; ldi r16, 72		; Load Capital H
                                 	; rcall write_usart ; Tx byte with USART
                                 	
                                 	; Wait for empty transmit buffer
000019 b11e                      	in r17, UCSRA	 ; get USART Control and Status Register A
00001a ff15                      	sbrs r17, UDRE   ; skip jump if tx buffer is empty
00001b cffd                      	rjmp write_usart ; jump back if tx buffer is not empty
                                 
                                 	; Put data (r16) into buffer, sends the data
00001c b908                      	out UDR, r16
                                 
00001d 9508                      	ret
                                 
                                 read_usart:
                                 	; reads data from USART module, result in r16
                                 
                                 	; Example
                                 	; rcall read_usart
                                 	; do something with data in r16
                                 
                                 	; wait for data to be received
00001e b11e                      	in r17, UCSRA	; get USART Control and Status Register A
00001f ff17                      	sbrs r17, RXC	; skip jump if data in rx buffer
000020 cffd                      	rjmp read_usart	; jump back if rx buffer is empty
                                 
                                 	; get and return received data from buffer
000021 b108                      	in r16, UDR
                                 
000022 9508                      	ret
                                 
                                 flush_rx_usart:
                                 	; flushes USART Rx Buffer
000023 b10e                      	in r16, UCSRA	    ; get USART Control and Status Register A
000024 ff07                      	sbrs r16, RXC	    ; skip ret if rx buffer has data
000025 9508                      	ret				    ; return if rx buffer is empty
000026 b108                      	in r16, UDR			; pull out data from rx buffer
000027 cffb                      	rjmp flush_rx_usart ; repeat to clear all data from buffer
                                 
                                 data_waiting_usart:
                                 	; loads true/false into r16 if USART rx has data
                                 
000028 e000                      	ldi r16, 0		 ; clear r16 for function return value
000029 b11e                      	in r17, UCSRA	 ; get USART Control and Status Register A
00002a ff17                      	sbrs r17, RXC	 ; skip ret false if rx buffer has data
00002b 9508                      	ret				 ; return false, no data
00002c e001                      	ldi r16, 1		 ; have data, load true
00002d 9508                      	ret				 ; return true, have data
                                 
                                 loop:
                                 	; Perform main loop tasks here
                                 
00002e dff9                      	rcall data_waiting_usart	; check if data in buffer
00002f fd00                      	sbrc r16, 0					; skip next line if bit 0 is cleared
000030 d014                      	rcall handle_data
                                 	
000031 e030                      	ldi r19, 0
000032 1343                      	cpse r20, r19
000033 d027                      	rcall led_logic	; Handle LED Logic Task
                                 
000034 cff9                      	rjmp loop
                                 
                                 say_hi:
                                 	; Write 'Hi\n' over USART
000035 e408                      	ldi r16, 72
000036 dfe2                      	rcall write_usart
000037 e609                      	ldi r16, 105
000038 dfe0                      	rcall write_usart
000039 e00a                      	ldi r16, 10
00003a dfde                      	rcall write_usart
00003b 9508                      	ret
                                 
                                 say_bye:
                                 	; Write 'Bye\n' over USART
00003c e402                      	ldi r16, 66
00003d dfdb                      	rcall write_usart
00003e e709                      	ldi r16, 121
00003f dfd9                      	rcall write_usart
000040 e605                      	ldi r16, 101
000041 dfd7                      	rcall write_usart
000042 e00a                      	ldi r16, 10
000043 dfd5                      	rcall write_usart
000044 9508                      	ret
                                 
                                 handle_data:
000045 dfd8                      	rcall read_usart
000046 3408                      	cpi r16, 72
000047 f039                      	breq handle_data_hi
000048 3402                      	cpi r16, 66
000049 f041                      	breq handle_data_bye
00004a 340f                      	cpi r16, 79
00004b f049                      	breq handle_data_led_logic_on
00004c 3500                      	cpi r16, 80
00004d f049                      	breq handle_data_led_logic_off
00004e c00b                      	rjmp handle_data_done
                                 
                                 	handle_data_hi:
00004f 9815                      	cbi PORTA, 5 ; LED On
000050 dfe4                      	rcall say_hi
000051 c008                      	rjmp handle_data_done
                                 	
                                 	handle_data_bye:
000052 9a15                      	sbi PORTA, 5 ; LED Off
000053 dfe8                      	rcall say_bye
000054 c005                      	rjmp handle_data_done
                                 
                                 	handle_data_led_logic_on:
000055 e041                      	ldi r20, 1
000056 c003                      	rjmp handle_data_done
                                 
                                 	handle_data_led_logic_off:
000057 e040                      	ldi r20, 0
000058 9a15                      	sbi PORTA, 5 ; LED Off
000059 c000                      	rjmp handle_data_done
                                 
                                 	handle_data_done:
00005a 9508                      	ret
                                 
                                 led_logic:
                                 	; PA5 = PB1, USER LED State = USER BTN State
                                 	; PB1: 1 = not pressed, 0 = pressed
                                 	; PA5: 1 = LED Off,     1 = LED On
00005b b112                      	in r17, PORTA	; Load Output State from PortA
00005c b104                      	in r16, PINB	; Load Inputs from PortB
00005d 9500                      	com r16			; Invert Inputs from PortB
00005e fb01                      	bst r16, 1		; Copy Button Bit to Storage
00005f f915                      	bld r17, 5		; Restore Button Bit to LED Bit
000060 b912                      	out PORTA, r17	; Set LED Based on Button Bit
000061 9508                      	ret
                                 
                                 forever:
                                 	; Catches certain run on bugs
000062 cfff                      	rjmp forever


RESOURCE USE INFORMATION
------------------------

Notice:
The register and instruction counts are symbol table hit counts,
and hence implicitly used resources are not counted, eg, the
'lpm' instruction without operands implicitly uses r0 and z,
none of which are counted.

x,y,z are separate entities in the symbol table and are
counted separately from r26..r31 here.

.dseg memory usage only counts static data declared with .byte

"ATtiny104" register use summary:
x  :   0 y  :   0 z  :   0 r0 :   0 r1 :   0 r2 :   0 r3 :   0 r4 :   0 
r5 :   0 r6 :   0 r7 :   0 r8 :   0 r9 :   0 r10:   0 r11:   0 r12:   0 
r13:   0 r14:   0 r15:   0 r16:  30 r17:  13 r18:   0 r19:   2 r20:   3 
r21:   0 r22:   0 r23:   0 r24:   0 r25:   0 r26:   0 r27:   0 r28:   0 
r29:   0 r30:   0 r31:   0 
Registers used: 4 out of 35 (11.4%)

"ATtiny104" instruction use summary:
.lds.l:   0 .sts.l:   0 adc   :   0 add   :   0 and   :   0 andi  :   0 
asr   :   0 bclr  :   0 bld   :   1 brbc  :   0 brbs  :   0 brcc  :   0 
brcs  :   0 break :   0 breq  :   4 brge  :   0 brhc  :   0 brhs  :   0 
brid  :   0 brie  :   0 brlo  :   0 brlt  :   0 brmi  :   0 brne  :   0 
brpl  :   0 brsh  :   0 brtc  :   0 brts  :   0 brvc  :   0 brvs  :   0 
bset  :   0 bst   :   1 cbi   :   2 cbr   :   0 clc   :   0 clh   :   0 
cli   :   1 cln   :   0 clr   :   0 cls   :   0 clt   :   0 clv   :   0 
clz   :   0 com   :   1 cp    :   0 cpc   :   0 cpi   :   4 cpse  :   1 
dec   :   0 eor   :   0 icall :   0 ijmp  :   0 in    :   8 inc   :   0 
ld    :   0 ldd   :   0 ldi   :  18 lds   :   0 lsl   :   0 lsr   :   0 
mov   :   0 neg   :   0 nop   :   0 or    :   0 ori   :   0 out   :   8 
pop   :   0 push  :   0 rcall :  16 ret   :  12 reti  :   0 rjmp  :  11 
rol   :   0 ror   :   0 sbc   :   0 sbci  :   0 sbi   :   5 sbic  :   0 
sbis  :   0 sbr   :   0 sbrc  :   1 sbrs  :   4 sec   :   0 seh   :   0 
sei   :   1 sen   :   0 ser   :   0 ses   :   0 set   :   0 sev   :   0 
sez   :   0 sleep :   0 st    :   0 std   :   0 sts   :   0 sub   :   0 
subi  :   0 swap  :   0 tst   :   0 wdr   :   0 
Instructions used: 18 out of 100 (18.0%)

"ATtiny104" memory use summary [bytes]:
Segment   Begin    End      Code   Data   Used    Size   Use%
---------------------------------------------------------------
[.cseg] 0x000000 0x0000c6    198      0    198    1024  19.3%
[.dseg] 0x000040 0x000060      0      0      0      32   0.0%
[.eseg] 0x000000 0x000000      0      0      0 9999999   0.0%

Assembly complete, 0 errors, 0 warnings
